{
  "contractName": "Storage",
  "abi": [
    {
      "inputs": [],
      "payable": false,
      "stateMutability": "nonpayable",
      "type": "constructor"
    },
    {
      "constant": false,
      "inputs": [
        {
          "internalType": "uint256",
          "name": "num",
          "type": "uint256"
        }
      ],
      "name": "store",
      "outputs": [],
      "payable": false,
      "stateMutability": "nonpayable",
      "type": "function"
    },
    {
      "constant": true,
      "inputs": [],
      "name": "get",
      "outputs": [
        {
          "internalType": "uint256",
          "name": "",
          "type": "uint256"
        }
      ],
      "payable": false,
      "stateMutability": "view",
      "type": "function"
    }
  ],
  "bytecode": "0x608060405234801561001057600080fd5b50600a60008190555060c6806100276000396000f3fe6080604052348015600f57600080fd5b506004361060325760003560e01c80636057361d1460375780636d4ce63c146062575b600080fd5b606060048036036020811015604b57600080fd5b8101908080359060200190929190505050607e565b005b60686088565b6040518082815260200191505060405180910390f35b8060008190555050565b6000805490509056fea265627a7a723158206034c18edbe1d956cacfeeeca2edcf13700aa7b8a73eea2927d632ed4187dfb964736f6c63430005100032",
  "source": "pragma solidity >=0.4.22 <0.7.0;\n\ncontract Storage {\n    uint256 number;\n\n    constructor() public {\n        number = 10;\n    }\n\n    function store(uint256 num) public {\n        number = num;\n    }\n\n    function get() public view returns (uint256) {\n        return number;\n    }\n}\n",
  "sourcePath": "/home/akkien/Documents/Laptrinh/Training/Ethereum/ethereum-interaction/contracts/Storage.sol",
  "compiler": {
    "name": "solc",
    "version": "0.5.16+commit.9c3226ce.Emscripten.clang"
  },
  "schemaVersion": "3.3.0",
  "updatedAt": "2020-10-16T08:03:26.808Z",
  "devdoc": {
    "methods": {}
  },
  "userdoc": {
    "methods": {}
  }
}